:020000040000FA
:04000000803118280B
:100008007E1480310B1F09280A2816284E01161E57
:100018000E280F2816280C1E12281328162882319D
:10002800042280317E10090080311A282030840093
:100038000030850029308231302280317E10400125
:100048008231282AFD007B0886008701403F400155
:10005800C900413FCA00490884004A0885001200C7
:10006800253A031D382839287D287B088600870112
:100078000130810741310318810AC201C301C60159
:10008800C701FF30C400FF30C5007B088600870128
:10009800403FC900413FCA00490884004A0885001A
:1000A8001200253A031D59285A2872287B08860011
:1000B80087010130810741310318810A2530F30097
:1000C8000030F4007D08C9004908F5008031A020FF
:1000D80080310130FB000030FC009F287B0886003F
:1000E80087010130810741310318810AFB01FC01B6
:1000F8009F287B0886008701403FC900413FCA000E
:10010800490884004A0885000008CB00CC014B0848
:10011800F3004C08F4007D08CD004D08F50080314F
:10012800A02080317B08860087010130810741319A
:100138000318810A6D28080075080319A428A52842
:10014800AA287508031DA928AA28AF287308823190
:1001580016228031DE287508033E860087011600C6
:1001680001040319B828B928D6287508033E860063
:100178008701403FF600413FF700750A8600870176
:10018800403FF800413FF9007908803AFA007708C3
:10019800803A7A02031DD228760878020318D528F7
:1001A800D628DE28750A860087010130810741318B
:1001B8000318810A08004001980199019A013F300B
:1001C8009200F0309300FE3094007E01B801C30124
:1001D800CE01B901C4010430CF00BA01C501D00174
:1001E8003730BB00F030C600FF30D1003F30BC00D4
:1001F800F030C700FF30D2000D307D01CB00053054
:100208007E01A000BD01BE01BF01C801C901CA012C
:10021800D3010430D400D5010D304101A0000230D3
:10022800A1008131CE2180314E011616080040010F
:10023800D3004F08D5004E08D400C001C1013529AC
:100248005430D1005108FB005008D2005208FC007D
:1002580053088031262081317B084001C0077C0883
:10026800C13D54088400550885001200031D3D292E
:100278003E2924294108CF004008CE000800483014
:1002880042019F0080309D0026309E0019309B005F
:100298009C0100304101A0000030A1008131E9211A
:1002A800813100304101A0000030A1008131E021FE
:1002B800813100304101A0000030A1008131F221DC
:1002C80081314001C801080043340134003400344E
:1002D8001F3402340034003400340034F234013462
:1002E800E9340134E034013400340034003400349B
:1002F800003400340034003400340034423475349F
:10030800743474346F346E34203470347234653419
:100318007334733465346434213420340D340A342E
:10032800003458304001D8005808DB005708CF0087
:100338005608CE005B30D8005808D0000030813114
:100348001B21813108004001640865040319AD29A7
:10035800AE29B32965088A0064080A0081317E0144
:10036800551108008131C32181318131FB2181314F
:100378008131432181318031DF20813108004E01F4
:100388000C1000304101A0000030A1008131D721BC
:1003980081310800410121084001E50041012008A0
:1003A8004001E4000800410121084001E300410147
:1003B80020084001E2000800410121084001DF0057
:1003C800410120084001DE000800410121084001E8
:1003D800E100410120084001E00008004101210836
:1003E8004001DD00410120084001DC000800203008
:1003F80051018E0040309100930190019201080054
:100408007E01551D082A092A0C2A8131A72182312B
:10041800080082304001D6008130D7008131952113
:1004280082310800F2007208F1007108F000823190
:100438001F22823108004E018D1D232A242A1F2ADB
:10044800700842019A0008008131B62182318B1769
:100458000B172D2A80311828640080010131890B7F
:04046800312A003401
:020000040001F9
:04000E00ED3FE73F9C
:04001400FF3FFF3F6C
:00000001FF
