:020000040000FA
:04000000803114280F
:100008007E1480314E01161E0A280B2812280C1E59
:100018000E280F2812288131CC2180317E1009004A
:100028008031162820308400003085002930813145
:10003800E62180317E1040018131DE29FC007A08FA
:1000480086008701403F4001C900413FCA00490876
:1000580084004A0885001200253A031D34283528F3
:1000680079287A0886008701013081074131031811
:10007800810AC201C301C601C701FF30C400FF30B5
:10008800C5007A0886008701403FC900413FCA0081
:10009800490884004A0885001200253A031D55289E
:1000A80056286E287A088600870101308107413179
:1000B8000318810A2530F2000030F3007C08C900DB
:1000C8004908F40080319C2080310130FA0000306A
:1000D800FB009B287A08860087010130810741319F
:1000E8000318810AFA01FB019B287A088600870118
:1000F800403FC900413FCA00490884004A088500BA
:100108000008CB00CC014B08F2004C08F3007C0837
:10011800CD004D08F40080319C2080317A0886009B
:1001280087010130810741310318810A69280800D5
:1001380074080319A028A128A6287408031DA52857
:10014800A628AB2872088131EC218031DA2874089E
:10015800033E86008701160001040319B428B52858
:10016800D2287408033E86008701403FF500413FCE
:10017800F600740A86008701403FF700413FF80007
:100188007808803AF9007608803A7902031DCE286B
:10019800750877020318D128D228DA28740A86004D
:1001A80087010130810741310318810A08004001A5
:1001B800980199019A013F309200F0309300FE3087
:1001C8009400FB307E01CE00F030C3003730B80019
:1001D800C401B9010430CF00BA01C501D0013730DC
:1001E800BB00F030C600FF30D1003F30BC00F0301B
:1001F800C700FF30D200551154155311D5304101B5
:10020800A0000130A1008131A82180314E011616CD
:1002180005307E01A00008004001D3004F08D5003A
:100228004E08D400C001C1012A295430D100510818
:10023800FA005008D2005208FB00530880312220EF
:1002480081317A084001C0077B08C13D5408840009
:10025800550885001200031D322933291929410840
:10026800CF004008CE000800083042019F008030CF
:100278009D0024309E0019309B009C0100304101F4
:10028800A0000030A1008131BA2181310030410144
:10029800A0000030A1008131B1218131003041013D
:1002A800A0000030A1008131C32181314001C80183
:1002B800080042347534743474346F346E34203426
:1002C800703472346534733473346534643421346F
:1002D80020340D340A3400345830FD007D084001C4
:1002E800DA005708CF005608CE005A30FD007D08C6
:1002F800D0000030813110218131080040015B08B5
:100308005C040319882989298E295C088A005B08FE
:100318000A0081317E01551108008031DB208131CE
:100328008131F22181318131F721813181313821C7
:1003380081310800F0004E018D1DA329A4299F29B1
:10034800700842019A000800410121084001DC00C0
:10035800410120084001DB0008004101210840015B
:10036800E000410120084001DF00080041012108A8
:100378004001E200410120084001E100080041017C
:1003880021084001DE00410120084001DD0008008D
:100398007E01551DD029D129D4298131822181316D
:1003A80008005D304001D6008130D70081317021CE
:1003B800813108008131912181318B170B17E32995
:1003C80080311428640080010131890BE729003449
:1003D800F100710881319E2181310800510191019C
:0C03E80093019201080050018C010800F4
:020000040001F9
:04000E00ED3FE73F9C
:04001400FF3FFF3F6C
:00000001FF
