:0400000080310E2815
:100008007E1480314E01161A0C1E0C2881317C2179
:100018007E100900803110284001B101B201B301FE
:10002800B401B501B6017E1040011A282A2080319A
:100038008B170B17A730AF000030B0002520803198
:1000480024283008B8002F08B70008003120803174
:1000580039208031762080319E28203051018E0051
:1000680091019301900192010800400198019901C2
:100078009A013F309200F0309300FE309400373000
:100088007E01B800D030C300FA30CE00B901C401F7
:100098000430CF00BA01C501D0013730BB00F030C1
:1000A800C600FF30D1003F30BC00F030C700FF3041
:1000B800D2000D307D01CB0005307E01A000BD01CE
:1000C800BE01BF01C801C901CA01D3010430D4006F
:1000D800D5018D304001AF000130B00025204E0120
:1000E80016160800483042019F0090309D002630C7
:1000F8009E0019309B009C014001AF01B0018C208B
:1001080080310030AF01B0019520B501B60108007B
:100118002F083004031908003008B4002F08B30072
:1001280008002F083004031908003008B2002F080F
:10013800B10008004E010C100B1440010030AF0153
:10014800B001A62808006930AC008130AD00AC28A9
:100158002E30AE00A401A5012D08A7002C08A6008A
:100168002E30A800B7282708AB002608AA002A08BE
:1001780084002B08850012000319CD282508A1004A
:100188002408A0002A30A2002808A300D02080312B
:10019800BB28A401A50108004A2180311200253A94
:1001A800031DDE28562180310318810A56210318C1
:1001B800810A08004A2180310008F200F301210871
:1001C800F5002008F400EE20803140015621031884
:1001D800810A0800740875040319F6287408750460
:1001E800031DF828720832295D21803116000104A8
:1001F800031915295D218031403FF600413FF70082
:1002080063218031403FF800413FF900803AFA000D
:100218007708803A7A02031D1329760878020318B2
:10022800080063217408840075088500403F0007B2
:10023800F6000131413F003DF70076088600770857
:1002480087007208810074088600750887000130ED
:100258004231810741310318810A0800F1003B212E
:100268008031003A031933297108F0004629F0015A
:100278004E018D1D442942019E1E4429F001F00AB9
:1002880070080800700842019A00080022088600D9
:100298008701403FFB00413FFC007B0884007C084D
:1002A8008500080022088600013087018107413156
:1002B800080074088600750887004931080074082A
:1002C800860075088700423108004234753474345A
:1002D80074346F346E34203470347234653473344B
:1002E800733465346434213420340D340A340034D2
:1002F8007E01551D0800802940013708380403197C
:100308008A2938088A0037080A0081317E01551188
:0403180008000800D1
:020000040001F9
:04000E00ED3FE73F9C
:04001400FF3FFF3F6C
:00000001FF
