:020000040000FA
:040000008031102813
:100008007E1480310B1F0E284E01161A0C1E0E2866
:100018008131FA217E1009008031122820308400B5
:100028000030850029308131EE217E104001813178
:10003800F429FD007B0886008701403FC900413F45
:10004800CA00490884004A0885001200253A031DA1
:100058006E287B088600870101308107413103182B
:10006800810AC201C301C601C701FF30C400FF30C5
:10007800C5007B0886008701403FC900413FCA0090
:10008800490884004A0885001200253A031D6328A0
:100098007B08860087010130810741310318810AF6
:1000A8002530F3000030F4007D08C9004908F50048
:1000B8008031CA200130FB000030FC0008007B08BA
:1000C800860087010130810741310318810AFB014D
:1000D800FC0108007B0886008701403FC900413FBA
:1000E800CA00490884004A0885000008CB00CC01F2
:1000F8004B08F3004C08F4007D08CD004D08F500CE
:100108008031CA2080317B08860087010130810751
:1001180041310318810A5E28980199019A013F30FC
:100128009200F0309300FE3094007E01B801C301C4
:10013800CE01B901C4010430CF00BA01C501D00114
:100148003730BB00F030C600FF30D1003F30BC0074
:10015800F030C700FF30D2000D307D01CB000530F4
:100168007E01A000BD01BE01BF01C801C901CA01CD
:10017800D3010430D400D501E0304101A0000130A2
:10018800A1008131B0214E01161608007508031D23
:100198007508031DD32873088131D8210800750814
:1001A800033E86008701160001040319F628750826
:1001B800033E86008701403FF600413FF700750A7D
:1001C80086008701403FF800413FF9007908803AEE
:1001D800FA007708803A7A02031DF4287608780234
:1001E80003180800750A860087010130810741312C
:1001F8000318810A0800D3004F08D5004E08D40020
:10020800C001C10154088400550885001200031973
:100218001F295430D1005108FB005008D200520861
:10022800FC00530880311D2080317B084001C00745
:100238007C08C13D06294108CF004008CE000800CF
:10024800483042019F0080309D0026309E001930C2
:100258009B009C0100304101A0000030A1008131C9
:10026800C821813100304101A0000030A100813156
:10027800C021813100304101A0000030A10081314E
:10028800D021C80108002434013400340034E73494
:1002980001340034003400340034D0340134C8341C
:1002A8000134C034013400340034003400340034E4
:1002B800003400340034003400344234753474346B
:1002C80074346F346E34203470347234653473345B
:1002D800733465346434213420340D340A340034E2
:1002E8005830D8005808DB005708CF005608CE0011
:1002F8005B30D8005808D00000308031FF2008005B
:1003080040016408650403198E2965088A00640899
:100318000A0081317E015511080081319D2181310A
:100328008131A7218131813124218131803190208F
:1003380008004E010C1000304101A0000030A1005F
:100348008131B8210800203051018E0040309100E1
:10035800930190019201080021084001E500410144
:1003680020084001E400080021084001E3004101A1
:1003780020084001E200080021084001DF00410197
:1003880020084001DE00080021084001E100410189
:1003980020084001E000080021084001DD0041017B
:1003A80020084001DC000800F2007208F100710822
:1003B800F0008131E72108006130D6008130D70094
:1003C8008131742108004E018D1DE7297008420112
:1003D8009A000800640080010131890BEF2900347C
:1003E8008131912181318B170B17F9297E01551D18
:0803F800080081318421080096
:020000040001F9
:04000E00ED3FE73F9C
:04001400FF3FFF3F6C
:00000001FF
