:020000040000FA
:0400000080310E2815
:100008007E1480314E01161A0C1E0C288131B52140
:100018007E100900803110282030840000308500CF
:1000280029308131A9217E1040018131AF29FC009E
:100038007A0886008701403FC900413FCA00490845
:1000480084004A0885001200253A031D6C287A08A6
:10005800860087010130810741310318810AC201F6
:10006800C301C601C701FF30C400FF30C5007A08CC
:1000780086008701403FC900413FCA004908840003
:100088004A0885001200253A031D61287A0886006F
:1000980087010130810741310318810A2530F200B8
:1000A8000030F3007C08C9004908F40080318E2034
:1000B8000130FA000030FB0008007A08860087014A
:1000C8000130810741310318810AFA01FB01080058
:1000D8007A0886008701403FC900413FCA004908A5
:1000E80084004A0885000008CB00CC014B08F200C8
:1000F8004C08F3007C08CD004D08F40080318E20B8
:1001080080317A0886008701013081074131031860
:10011800810A5C287408031D7408031D9728720857
:100128008131C02108007408033E8600870116004B
:1001380001040319BA287408033E86008701403F6A
:10014800F500413FF600740A86008701403FF7003A
:10015800413FF8007808803AF9007608803A790239
:10016800031DB8287508770203180800740A86006A
:1001780087010130810741310318810A080098017D
:1001880099019A013F309200F0309300FE309400BC
:10019800FB307E01CE00F030C3003730B800C40118
:1001A800B9010430CF00BA01C501D0013730BB0016
:1001B800F030C600FF30D1003F30BC00F030C7003F
:1001C800FF30D200551154155311A2304101A0003F
:1001D8000130A10081317A214E01161605307E01C9
:1001E800A0000800D3004F08D5004E08D400C00175
:1001F800C101540884005508850012000319162906
:100208005430D1005108FA005008D2005208FB00BF
:10021800530880311B2080317A084001C0077B08D1
:10022800C13DFD284108CF004008CE000800083035
:1002380042019F0080309D0024309E0019309B00B1
:100248009C0100304101A0000030A10081318A21C9
:10025800813100304101A0000030A10081318221AC
:10026800813100304101A0000030A100813192218C
:10027800C801080042347534743474346F346E34F1
:1002880020347034723465347334733465346434B0
:10029800213420340D340A3400345830FD007D08F0
:1002A800DA005708CF005608CE005A30FD007D0806
:1002B800D00000308031F620080040015B085C0463
:1002C80003196B295C088A005B080A0081317E01EA
:1002D800551108008031C32081318131BB21813122
:1002E8008131C521813181311B210800210840015C
:1002F800DC00410120084001DB0008002108400122
:10030800E000410120084001DF0008002108400109
:10031800E200410120084001E100080021084001F5
:10032800DE00410120084001DD000800F0004E0118
:100338008D1D9B29700842019A0008003E30D600A6
:100348008130D700813151210800640080010131DA
:10035800890BAA29003481316E2181318B170B1743
:10036800B4297E01551D0800813161210800510121
:100378009101930192010800F100710881319A21DD
:08038800080050018C0108007F
:020000040001F9
:04000E00ED3FE73F9C
:04001400FF3FFF3F6C
:00000001FF
